{
  "_format": "hh3-artifact-1",
  "contractName": "GameFactory",
  "sourceName": "contracts/GameFactory.sol",
  "abi": [
    {
      "inputs": [],
      "stateMutability": "nonpayable",
      "type": "constructor"
    },
    {
      "inputs": [],
      "name": "AccessControlBadConfirmation",
      "type": "error"
    },
    {
      "inputs": [
        {
          "internalType": "address",
          "name": "account",
          "type": "address"
        },
        {
          "internalType": "bytes32",
          "name": "neededRole",
          "type": "bytes32"
        }
      ],
      "name": "AccessControlUnauthorizedAccount",
      "type": "error"
    },
    {
      "inputs": [
        {
          "internalType": "address",
          "name": "target",
          "type": "address"
        }
      ],
      "name": "AddressEmptyCode",
      "type": "error"
    },
    {
      "inputs": [
        {
          "internalType": "address",
          "name": "implementation",
          "type": "address"
        }
      ],
      "name": "ERC1967InvalidImplementation",
      "type": "error"
    },
    {
      "inputs": [],
      "name": "ERC1967NonPayable",
      "type": "error"
    },
    {
      "inputs": [],
      "name": "EnforcedPause",
      "type": "error"
    },
    {
      "inputs": [],
      "name": "ExpectedPause",
      "type": "error"
    },
    {
      "inputs": [],
      "name": "FailedCall",
      "type": "error"
    },
    {
      "inputs": [
        {
          "internalType": "string",
          "name": "gameCode",
          "type": "string"
        }
      ],
      "name": "GameCodeExists",
      "type": "error"
    },
    {
      "inputs": [],
      "name": "InvalidInitialization",
      "type": "error"
    },
    {
      "inputs": [
        {
          "internalType": "string",
          "name": "reason",
          "type": "string"
        }
      ],
      "name": "InvalidParam",
      "type": "error"
    },
    {
      "inputs": [],
      "name": "NotInitializing",
      "type": "error"
    },
    {
      "inputs": [],
      "name": "UUPSUnauthorizedCallContext",
      "type": "error"
    },
    {
      "inputs": [
        {
          "internalType": "bytes32",
          "name": "slot",
          "type": "bytes32"
        }
      ],
      "name": "UUPSUnsupportedProxiableUUID",
      "type": "error"
    },
    {
      "anonymous": false,
      "inputs": [
        {
          "indexed": true,
          "internalType": "uint256",
          "name": "gameId",
          "type": "uint256"
        },
        {
          "indexed": true,
          "internalType": "address",
          "name": "gameAddress",
          "type": "address"
        },
        {
          "indexed": false,
          "internalType": "string",
          "name": "gameCode",
          "type": "string"
        },
        {
          "indexed": false,
          "internalType": "string",
          "name": "schemeCode",
          "type": "string"
        },
        {
          "indexed": false,
          "internalType": "address",
          "name": "currency",
          "type": "address"
        },
        {
          "indexed": true,
          "internalType": "address",
          "name": "creator",
          "type": "address"
        }
      ],
      "name": "GameCreated",
      "type": "event"
    },
    {
      "anonymous": false,
      "inputs": [
        {
          "indexed": false,
          "internalType": "uint64",
          "name": "version",
          "type": "uint64"
        }
      ],
      "name": "Initialized",
      "type": "event"
    },
    {
      "anonymous": false,
      "inputs": [
        {
          "indexed": false,
          "internalType": "address",
          "name": "account",
          "type": "address"
        }
      ],
      "name": "Paused",
      "type": "event"
    },
    {
      "anonymous": false,
      "inputs": [
        {
          "indexed": true,
          "internalType": "bytes32",
          "name": "role",
          "type": "bytes32"
        },
        {
          "indexed": true,
          "internalType": "bytes32",
          "name": "previousAdminRole",
          "type": "bytes32"
        },
        {
          "indexed": true,
          "internalType": "bytes32",
          "name": "newAdminRole",
          "type": "bytes32"
        }
      ],
      "name": "RoleAdminChanged",
      "type": "event"
    },
    {
      "anonymous": false,
      "inputs": [
        {
          "indexed": true,
          "internalType": "bytes32",
          "name": "role",
          "type": "bytes32"
        },
        {
          "indexed": true,
          "internalType": "address",
          "name": "account",
          "type": "address"
        },
        {
          "indexed": true,
          "internalType": "address",
          "name": "sender",
          "type": "address"
        }
      ],
      "name": "RoleGranted",
      "type": "event"
    },
    {
      "anonymous": false,
      "inputs": [
        {
          "indexed": true,
          "internalType": "bytes32",
          "name": "role",
          "type": "bytes32"
        },
        {
          "indexed": true,
          "internalType": "address",
          "name": "account",
          "type": "address"
        },
        {
          "indexed": true,
          "internalType": "address",
          "name": "sender",
          "type": "address"
        }
      ],
      "name": "RoleRevoked",
      "type": "event"
    },
    {
      "anonymous": false,
      "inputs": [
        {
          "indexed": false,
          "internalType": "address",
          "name": "account",
          "type": "address"
        }
      ],
      "name": "Unpaused",
      "type": "event"
    },
    {
      "anonymous": false,
      "inputs": [
        {
          "indexed": true,
          "internalType": "address",
          "name": "implementation",
          "type": "address"
        }
      ],
      "name": "Upgraded",
      "type": "event"
    },
    {
      "inputs": [],
      "name": "DEFAULT_ADMIN_ROLE",
      "outputs": [
        {
          "internalType": "bytes32",
          "name": "",
          "type": "bytes32"
        }
      ],
      "stateMutability": "view",
      "type": "function"
    },
    {
      "inputs": [],
      "name": "GAME_CREATOR_ROLE",
      "outputs": [
        {
          "internalType": "bytes32",
          "name": "",
          "type": "bytes32"
        }
      ],
      "stateMutability": "view",
      "type": "function"
    },
    {
      "inputs": [],
      "name": "PAUSER_ROLE",
      "outputs": [
        {
          "internalType": "bytes32",
          "name": "",
          "type": "bytes32"
        }
      ],
      "stateMutability": "view",
      "type": "function"
    },
    {
      "inputs": [],
      "name": "UPGRADE_INTERFACE_VERSION",
      "outputs": [
        {
          "internalType": "string",
          "name": "",
          "type": "string"
        }
      ],
      "stateMutability": "view",
      "type": "function"
    },
    {
      "inputs": [
        {
          "components": [
            {
              "internalType": "string",
              "name": "gameCode",
              "type": "string"
            },
            {
              "internalType": "string",
              "name": "gameName",
              "type": "string"
            },
            {
              "internalType": "string",
              "name": "schemeCode",
              "type": "string"
            },
            {
              "internalType": "string",
              "name": "schemeName",
              "type": "string"
            },
            {
              "internalType": "enum GameCore.GameMode",
              "name": "mode",
              "type": "uint8"
            },
            {
              "internalType": "uint256",
              "name": "ticketPrice",
              "type": "uint256"
            },
            {
              "internalType": "address",
              "name": "currency",
              "type": "address"
            },
            {
              "internalType": "uint64",
              "name": "saleStart",
              "type": "uint64"
            },
            {
              "internalType": "uint64",
              "name": "saleClose",
              "type": "uint64"
            },
            {
              "internalType": "uint64",
              "name": "drawAt",
              "type": "uint64"
            },
            {
              "internalType": "uint32",
              "name": "maxParticipation",
              "type": "uint32"
            }
          ],
          "internalType": "struct GameCore.GameConfig",
          "name": "cfg",
          "type": "tuple"
        },
        {
          "components": [
            {
              "internalType": "uint16",
              "name": "rank",
              "type": "uint16"
            },
            {
              "internalType": "uint16",
              "name": "maxWinners",
              "type": "uint16"
            },
            {
              "internalType": "enum GameCore.PrizeCategory",
              "name": "prizeCategory",
              "type": "uint8"
            },
            {
              "internalType": "uint128",
              "name": "prizeAmount",
              "type": "uint128"
            },
            {
              "internalType": "uint16",
              "name": "allocationBps",
              "type": "uint16"
            },
            {
              "internalType": "enum GameCore.PrizeType",
              "name": "prizeType",
              "type": "uint8"
            },
            {
              "internalType": "enum GameCore.ClaimType",
              "name": "claimType",
              "type": "uint8"
            },
            {
              "internalType": "string",
              "name": "rankDescription",
              "type": "string"
            }
          ],
          "internalType": "struct GameCore.RankConfig[]",
          "name": "ranks",
          "type": "tuple[]"
        },
        {
          "internalType": "address",
          "name": "gameAdmin",
          "type": "address"
        }
      ],
      "name": "createGame",
      "outputs": [
        {
          "internalType": "address",
          "name": "gameAddress",
          "type": "address"
        }
      ],
      "stateMutability": "nonpayable",
      "type": "function"
    },
    {
      "inputs": [],
      "name": "getAllGames",
      "outputs": [
        {
          "internalType": "address[]",
          "name": "",
          "type": "address[]"
        }
      ],
      "stateMutability": "view",
      "type": "function"
    },
    {
      "inputs": [
        {
          "internalType": "uint256",
          "name": "id",
          "type": "uint256"
        }
      ],
      "name": "getGame",
      "outputs": [
        {
          "internalType": "address",
          "name": "",
          "type": "address"
        }
      ],
      "stateMutability": "view",
      "type": "function"
    },
    {
      "inputs": [
        {
          "internalType": "string",
          "name": "code",
          "type": "string"
        }
      ],
      "name": "getGameByCode",
      "outputs": [
        {
          "internalType": "address",
          "name": "",
          "type": "address"
        }
      ],
      "stateMutability": "view",
      "type": "function"
    },
    {
      "inputs": [],
      "name": "getGameCount",
      "outputs": [
        {
          "internalType": "uint256",
          "name": "",
          "type": "uint256"
        }
      ],
      "stateMutability": "view",
      "type": "function"
    },
    {
      "inputs": [
        {
          "internalType": "bytes32",
          "name": "role",
          "type": "bytes32"
        }
      ],
      "name": "getRoleAdmin",
      "outputs": [
        {
          "internalType": "bytes32",
          "name": "",
          "type": "bytes32"
        }
      ],
      "stateMutability": "view",
      "type": "function"
    },
    {
      "inputs": [
        {
          "internalType": "bytes32",
          "name": "role",
          "type": "bytes32"
        },
        {
          "internalType": "address",
          "name": "account",
          "type": "address"
        }
      ],
      "name": "grantRole",
      "outputs": [],
      "stateMutability": "nonpayable",
      "type": "function"
    },
    {
      "inputs": [
        {
          "internalType": "bytes32",
          "name": "role",
          "type": "bytes32"
        },
        {
          "internalType": "address",
          "name": "account",
          "type": "address"
        }
      ],
      "name": "hasRole",
      "outputs": [
        {
          "internalType": "bool",
          "name": "",
          "type": "bool"
        }
      ],
      "stateMutability": "view",
      "type": "function"
    },
    {
      "inputs": [
        {
          "components": [
            {
              "internalType": "address",
              "name": "admin",
              "type": "address"
            },
            {
              "internalType": "address",
              "name": "vrfCoordinator",
              "type": "address"
            },
            {
              "internalType": "uint256",
              "name": "vrfSubscriptionId",
              "type": "uint256"
            },
            {
              "internalType": "bytes32",
              "name": "vrfKeyHash",
              "type": "bytes32"
            },
            {
              "internalType": "uint32",
              "name": "vrfCallbackGasLimit",
              "type": "uint32"
            },
            {
              "internalType": "uint16",
              "name": "vrfRequestConfirmations",
              "type": "uint16"
            }
          ],
          "internalType": "struct GameFactory.InitParams",
          "name": "p",
          "type": "tuple"
        }
      ],
      "name": "initialize",
      "outputs": [],
      "stateMutability": "nonpayable",
      "type": "function"
    },
    {
      "inputs": [],
      "name": "pause",
      "outputs": [],
      "stateMutability": "nonpayable",
      "type": "function"
    },
    {
      "inputs": [],
      "name": "paused",
      "outputs": [
        {
          "internalType": "bool",
          "name": "",
          "type": "bool"
        }
      ],
      "stateMutability": "view",
      "type": "function"
    },
    {
      "inputs": [],
      "name": "proxiableUUID",
      "outputs": [
        {
          "internalType": "bytes32",
          "name": "",
          "type": "bytes32"
        }
      ],
      "stateMutability": "view",
      "type": "function"
    },
    {
      "inputs": [
        {
          "internalType": "bytes32",
          "name": "role",
          "type": "bytes32"
        },
        {
          "internalType": "address",
          "name": "callerConfirmation",
          "type": "address"
        }
      ],
      "name": "renounceRole",
      "outputs": [],
      "stateMutability": "nonpayable",
      "type": "function"
    },
    {
      "inputs": [
        {
          "internalType": "bytes32",
          "name": "role",
          "type": "bytes32"
        },
        {
          "internalType": "address",
          "name": "account",
          "type": "address"
        }
      ],
      "name": "revokeRole",
      "outputs": [],
      "stateMutability": "nonpayable",
      "type": "function"
    },
    {
      "inputs": [
        {
          "internalType": "bytes4",
          "name": "interfaceId",
          "type": "bytes4"
        }
      ],
      "name": "supportsInterface",
      "outputs": [
        {
          "internalType": "bool",
          "name": "",
          "type": "bool"
        }
      ],
      "stateMutability": "view",
      "type": "function"
    },
    {
      "inputs": [],
      "name": "unpause",
      "outputs": [],
      "stateMutability": "nonpayable",
      "type": "function"
    },
    {
      "inputs": [
        {
          "internalType": "address",
          "name": "newImplementation",
          "type": "address"
        },
        {
          "internalType": "bytes",
          "name": "data",
          "type": "bytes"
        }
      ],
      "name": "upgradeToAndCall",
      "outputs": [],
      "stateMutability": "payable",
      "type": "function"
    },
    {
      "inputs": [],
      "name": "vrfCallbackGasLimit",
      "outputs": [
        {
          "internalType": "uint32",
          "name": "",
          "type": "uint32"
        }
      ],
      "stateMutability": "view",
      "type": "function"
    },
    {
      "inputs": [],
      "name": "vrfCoordinator",
      "outputs": [
        {
          "internalType": "address",
          "name": "",
          "type": "address"
        }
      ],
      "stateMutability": "view",
      "type": "function"
    },
    {
      "inputs": [],
      "name": "vrfKeyHash",
      "outputs": [
        {
          "internalType": "bytes32",
          "name": "",
          "type": "bytes32"
        }
      ],
      "stateMutability": "view",
      "type": "function"
    },
    {
      "inputs": [],
      "name": "vrfRequestConfirmations",
      "outputs": [
        {
          "internalType": "uint16",
          "name": "",
          "type": "uint16"
        }
      ],
      "stateMutability": "view",
      "type": "function"
    },
    {
      "inputs": [],
      "name": "vrfSubscriptionId",
      "outputs": [
        {
          "internalType": "uint256",
          "name": "",
          "type": "uint256"
        }
      ],
      "stateMutability": "view",
      "type": "function"
    }
  ],
  "bytecode": "0x60a080604052346100c257306080525f516020615acb5f395f51905f525460ff8160401c166100b3576002600160401b03196001600160401b03821601610060575b604051615a0490816100c782396080518181816107dc01526108c20152f35b6001600160401b0319166001600160401b039081175f516020615acb5f395f51905f525581527fc7f505b2f371ae2175ee4913f4499e1f2633a7b5936321eed1cdaeb6115181d290602090a15f80610041565b63f92ee8a960e01b5f5260045ffd5b5f80fdfe6080806040526004361015610012575f80fd5b5f3560e01c90816301ffc9a71461126a57508063041d443e1461124d578063248a9ca31461120e5780632f2ff15d146111c457806331b011e21461118a57806336568abe146111465780633b7ed734146111235780633f4ba83a146110a55780634d2132b314610a8b5780634f1ef2861461083057806352d1902d146107ca578063598bc486146107a75780635c975abb146107795780638456cb591461070857806391d14854146106b3578063a217fddf14610699578063a2f77bcc14610667578063a3e56fa814610640578063ad3cb1cc146105e2578063ced91a7214610565578063d547741f14610514578063db1c45f91461044c578063dcfa134e146101b2578063e63ab1e914610178578063e87c0ee61461015b5763ed647d211461013a575f80fd5b34610157575f366003190112610157576020600154604051908152f35b5f80fd5b34610157575f366003190112610157576020600454604051908152f35b34610157575f3660031901126101575760206040517f65d7a28e3265b37a6474929f336521b332c1681b933f6cb9f3376673440d862a8152f35b346101575760c0366003190112610157575f5160206159af5f395f51905f525460ff8160401c1615906001600160401b03811680159081610444575b600114908161043a575b159081610431575b506104225767ffffffffffffffff1981166001175f5160206159af5f395f51905f5255816103f6575b506001600160a01b0361023a6113b8565b161580156103de575b6103a95763ffffffff6102546113e4565b16156103635761026261180e565b61026a61180e565b61027a6102756113b8565b6114ac565b5061028b6102866113b8565b611548565b5061029c6102976113b8565b611601565b506001600160a01b036102ad6113ce565b166001600160601b0360a01b5f5416175f5560443560015560643560025563ffffffff6102d86113e4565b166003549060a43561ffff811681036101575765ffff000000009060201b169165ffffffffffff1916171760035561030c57005b68ff0000000000000000195f5160206159af5f395f51905f5254165f5160206159af5f395f51905f52557fc7f505b2f371ae2175ee4913f4499e1f2633a7b5936321eed1cdaeb6115181d2602060405160018152a1005b604051634389d5ab60e01b815260206004820152601c60248201527f63616c6c6261636b4761734c696d6974206d757374206265203e2030000000006044820152606490fd5b604051634389d5ab60e01b815260206004820152600c60248201526b7a65726f206164647265737360a01b6044820152606490fd5b506001600160a01b036103ef6113ce565b1615610243565b68ffffffffffffffffff191668010000000000000001175f5160206159af5f395f51905f525581610229565b63f92ee8a960e01b5f5260045ffd5b90501583610200565b303b1591506101f8565b8391506101ee565b34610157575f366003190112610157576040518060206004549283815201809260045f527f8a35acfbc15ff81a39ae7d344fd709f28e8600b4aa8c65c6b64bfe7fe36bd19b905f5b8181106104f557505050816104aa9103826112d3565b604051918291602083019060208452518091526040830191905f5b8181106104d3575050500390f35b82516001600160a01b03168452859450602093840193909201916001016104c5565b82546001600160a01b0316845260209093019260019283019201610494565b34610157576040366003190112610157576105636004356105336112bd565b9061055e610559825f525f51602061596f5f395f51905f52602052600160405f20015490565b611466565b61174b565b005b34610157576020366003190112610157576004356001600160401b0381116101575736602382011215610157578060040135906001600160401b038211610157573660248383010111610157576020602491819380604051948593018337600690820190815203019020546040516001600160a01b039091168152f35b34610157575f36600319011261015757604080519061060181836112d3565b600582526020820191640352e302e360dc1b83528151928391602083525180918160208501528484015e5f828201840152601f01601f19168101030190f35b34610157575f366003190112610157575f546040516001600160a01b039091168152602090f35b34610157576020366003190112610157576004355f526005602052602060018060a01b0360405f205416604051908152f35b34610157575f3660031901126101575760206040515f8152f35b34610157576040366003190112610157576106cc6112bd565b6004355f525f51602061596f5f395f51905f5260205260405f209060018060a01b03165f52602052602060ff60405f2054166040519015158152f35b34610157575f366003190112610157576107206113f7565b6107286117e7565b600160ff195f51602061598f5f395f51905f525416175f51602061598f5f395f51905f52557f62e78cea01bee320cd4e420270b5ea74000d11b0c9f74754ebdbfc544b05a2586020604051338152a1005b34610157575f36600319011261015757602060ff5f51602061598f5f395f51905f5254166040519015158152f35b34610157575f36600319011261015757602061ffff600354821c16604051908152f35b34610157575f366003190112610157577f00000000000000000000000000000000000000000000000000000000000000006001600160a01b031630036108215760206040515f51602061594f5f395f51905f528152f35b63703e46dd60e11b5f5260045ffd5b6040366003190112610157576004356001600160a01b03811690818103610157576024356001600160401b03811161015757366023820112156101575780600401356001600160401b038111610a775760405191610898601f8301601f1916602001846112d3565b818352366024838301011161015757815f9260246020930183860137830101526001600160a01b037f000000000000000000000000000000000000000000000000000000000000000016308114908115610a55575b5061082157335f9081527fb7db2dd08fcb62d0c9e08c51941cae53c267786a0b75803fb7960902fc8ef97d602052604090205460ff1615610a3e576040516352d1902d60e01b8152602081600481875afa5f9181610a0a575b5061095e5783634c9c8ce360e01b5f5260045260245ffd5b805f51602061594f5f395f51905f528592036109f85750823b156109e6575f51602061594f5f395f51905f5280546001600160a01b031916821790557fbc7cd75a20ee27fd9adebab32041f755214dbc6bffa90cc0225b39da2e5c2d3b5f80a28051156109ce5761056391611839565b5050346109d757005b63b398979f60e01b5f5260045ffd5b634c9c8ce360e01b5f5260045260245ffd5b632a87526960e21b5f5260045260245ffd5b9091506020813d602011610a36575b81610a26602093836112d3565b8101031261015757519085610946565b3d9150610a19565b63e2517d3f60e01b5f52336004525f60245260445ffd5b5f51602061594f5f395f51905f52546001600160a01b031614159050846108ed565b634e487b7160e01b5f52604160045260245ffd5b34610157576060366003190112610157576004356001600160401b0381116101575780600401610160600319833603011261015757602435916001600160401b0383116101575736602384011215610157578260040135926001600160401b038411610157578360051b903660248383010111610157576044356001600160a01b0381169081900361015757335f9081527faa4ac02616beda74020826fd4728c50bb95a6cf039451fa5ce9e99b09fee62cf602052604090205460ff161561106e57610b556117e7565b610b5f85806112f4565b8060405192833760069082019081528190036020019020546001600160a01b031661103c576004549160018060a01b035f5416936001549260025493600354906040519760a089018981106001600160401b03821117610a7757604052885260208801908152604088019586526060880163ffffffff8316815261ffff60808a019360201c16835260405196614069928389019a898c106001600160401b038d1117610a775761ffff9663ffffffff956118c68c398b8d5260208d0152516001600160a01b031660408c01525160608b01525160808a0152511660a0880152511660c086015261012060e0860152610c92610c71610c5d8980611346565b6101606101208a0152610280890191611326565b610c7e602489018a611346565b88830361011f19016101408a015290611326565b97610cdd610cbc604489019a610ca88c8c611346565b8a830361011f19016101608c015290611326565b610cc960648a018b611346565b89830361011f19016101808b015290611326565b916084880135600281101561015757610cf581611377565b6101a088015260a48801356101c088015260c48801356001600160a01b0381169890979089890361015757610144908a6101e08401526001600160401b03610d3f60e48301611395565b166102008401526001600160401b03610d5b6101048301611395565b166102208401526001600160401b03610d776101248301611395565b16610240840152013563ffffffff8116809103610157579086959392916102608201526101008186039101528184526020808501918501019360248401935f916101221982360301905b858410610f32575050505050505003905ff08015610f275760018060a01b0316936004549568010000000000000000871015610a77576001870180600455871015610f1357610eff86947f3e0b6370626f83df6893488658aff872ce6401ee181edd4f839823b5c18d5fc6936020997f8a35acfbc15ff81a39ae7d344fd709f28e8600b4aa8c65c6b64bfe7fe36bd19b01876001600160601b0360a01b825416179055855f5260058a5260405f2060018060a01b0388166001600160601b0360a01b82541617905589610e9482806112f4565b919082604051938492833760069082019081520301902080546001600160a01b0319166001600160a01b038916179055610ef2610edc610ed483806112f4565b9690936112f4565b9290935060405195606087526060870191611326565b918483038b860152611326565b9460408201528033950390a4604051908152f35b634e487b7160e01b5f52603260045260245ffd5b6040513d5f823e3d90fd5b9193959750919395601f19828203018652873583811215610157578401602481019061ffff610f60836113a9565b16835261ffff610f72604483016113a9565b1660208401526064810135600281101561015757610f8f81611377565b604084015260848101356fffffffffffffffffffffffffffffffff811680910361015757606084015261ffff610fc760a483016113a9565b16608084015260c4810135600281101561015757610fe481611377565b60a084015260e48101359160038310156101575760019361010061101a61102a9361010460209796889760c08701520190611346565b9190928160e08201520191611326565b99019601940191889796949391610dc1565b61104685806112f4565b61106a604051928392635126692960e01b8452602060048501526024840191611326565b0390fd5b63e2517d3f60e01b5f52336004527f24f6c009eb13751040a28379057ed7d527a78ecf74c2107b989e00f4e509d9dd60245260445ffd5b34610157575f366003190112610157576110bd6113f7565b5f51602061598f5f395f51905f525460ff8116156111145760ff19165f51602061598f5f395f51905f52557f5db9ee0a495bf2e6ff9c91a7834c1ba4fdd244a5e8aa4e537bd38aeae4b073aa6020604051338152a1005b638dfc202b60e01b5f5260045ffd5b34610157575f36600319011261015757602063ffffffff60035416604051908152f35b346101575760403660031901126101575761115f6112bd565b336001600160a01b0382160361117b576105639060043561174b565b63334bd91960e11b5f5260045ffd5b34610157575f3660031901126101575760206040517f24f6c009eb13751040a28379057ed7d527a78ecf74c2107b989e00f4e509d9dd8152f35b34610157576040366003190112610157576105636004356111e36112bd565b90611209610559825f525f51602061596f5f395f51905f52602052600160405f20015490565b6116ba565b346101575760203660031901126101575760206112456004355f525f51602061596f5f395f51905f52602052600160405f20015490565b604051908152f35b34610157575f366003190112610157576020600254604051908152f35b34610157576020366003190112610157576004359063ffffffff60e01b821680920361015757602091637965db0b60e01b81149081156112ac575b5015158152f35b6301ffc9a760e01b149050836112a5565b602435906001600160a01b038216820361015757565b90601f801991011681019081106001600160401b03821117610a7757604052565b903590601e198136030182121561015757018035906001600160401b0382116101575760200191813603831361015757565b908060209392818452848401375f828201840152601f01601f1916010190565b9035601e19823603018112156101575701602081359101916001600160401b03821161015757813603831361015757565b6002111561138157565b634e487b7160e01b5f52602160045260245ffd5b35906001600160401b038216820361015757565b359061ffff8216820361015757565b6004356001600160a01b03811681036101575790565b6024356001600160a01b03811681036101575790565b60843563ffffffff811681036101575790565b335f9081527f75442b0a96088b5456bc4ed01394c96a4feec0f883c9494257d76b96ab1c9b6b602052604090205460ff161561142f57565b63e2517d3f60e01b5f52336004527f65d7a28e3265b37a6474929f336521b332c1681b933f6cb9f3376673440d862a60245260445ffd5b5f8181525f51602061596f5f395f51905f526020908152604080832033845290915290205460ff16156114965750565b63e2517d3f60e01b5f523360045260245260445ffd5b6001600160a01b0381165f9081527fb7db2dd08fcb62d0c9e08c51941cae53c267786a0b75803fb7960902fc8ef97d602052604090205460ff16611543576001600160a01b03165f8181527fb7db2dd08fcb62d0c9e08c51941cae53c267786a0b75803fb7960902fc8ef97d60205260408120805460ff191660011790553391905f51602061592f5f395f51905f528180a4600190565b505f90565b6001600160a01b0381165f9081527faa4ac02616beda74020826fd4728c50bb95a6cf039451fa5ce9e99b09fee62cf602052604090205460ff16611543576001600160a01b03165f8181527faa4ac02616beda74020826fd4728c50bb95a6cf039451fa5ce9e99b09fee62cf60205260408120805460ff191660011790553391907f24f6c009eb13751040a28379057ed7d527a78ecf74c2107b989e00f4e509d9dd905f51602061592f5f395f51905f529080a4600190565b6001600160a01b0381165f9081527f75442b0a96088b5456bc4ed01394c96a4feec0f883c9494257d76b96ab1c9b6b602052604090205460ff16611543576001600160a01b03165f8181527f75442b0a96088b5456bc4ed01394c96a4feec0f883c9494257d76b96ab1c9b6b60205260408120805460ff191660011790553391907f65d7a28e3265b37a6474929f336521b332c1681b933f6cb9f3376673440d862a905f51602061592f5f395f51905f529080a4600190565b5f8181525f51602061596f5f395f51905f52602090815260408083206001600160a01b038616845290915290205460ff16611745575f8181525f51602061596f5f395f51905f52602090815260408083206001600160a01b0395909516808452949091528120805460ff19166001179055339291905f51602061592f5f395f51905f529080a4600190565b50505f90565b5f8181525f51602061596f5f395f51905f52602090815260408083206001600160a01b038616845290915290205460ff1615611745575f8181525f51602061596f5f395f51905f52602090815260408083206001600160a01b0395909516808452949091528120805460ff19169055339291907ff6391f5c32d9c69d2a47ea670b442974b53935d1edc7fd64eb21e047a839171b9080a4600190565b60ff5f51602061598f5f395f51905f5254166117ff57565b63d93c066560e01b5f5260045ffd5b60ff5f5160206159af5f395f51905f525460401c161561182a57565b631afcd79f60e31b5f5260045ffd5b905f8091602081519101845af480806118b2575b1561186d5750506040513d81523d5f602083013e60203d82010160405290565b1561189257639996b31560e01b5f9081526001600160a01b0391909116600452602490fd5b3d156118a3576040513d5f823e3d90fd5b63d6bda27560e01b5f5260045ffd5b503d15158061184d5750813b151561184d56fe610120604052346111df576140698038038061001a816111e3565b92833981818101039161012083126111df5780519260a061003d60208401611208565b91603f1901126111df576040519160a083016001600160401b038111848210176106555760405261007060408201611208565b8352606081015160208401526080810151604084015261009260a0820161121c565b60608401526100a360c0820161122d565b608084015260e0810151906001600160401b0382116111df5761016082820186830103126111df576040519161016083016001600160401b0381118482101761065557604052818101516001600160401b0381116111df5761010c90878401908385010161123c565b8352818101602001516001600160401b0381116111df5761013490878401908385010161123c565b6020840152818101604001516001600160401b0381116111df5761015f90878401908385010161123c565b6040840152818101606001516001600160401b0381116111df5761018a90878401908385010161123c565b60608401526080818301015160028110156111df576102109161014091608086015260a0818501015160a08601526101c660c082860101611208565b60c08601526101d960e08286010161128d565b60e08601526101ed6101008286010161128d565b6101008601526102026101208286010161128d565b61012086015283010161121c565b610140830152610100810151946001600160401b0386116111df57808201601f8784010112156111df5781860151906001600160401b0382116106555761025c60208360051b016111e3565b96602088848152019082850160208560051b8388010101116111df57602081860101915b60208560051b838801010183106110da57505086516001600160a01b0316935050331591506110959050575f80546001600160a01b03191633179055801561108657600280546001600160a01b03191691909117905560017f9b779b17422d0df92223018b32b4d1fa46e071723d6817e2486d003becc55f00556001600160a01b038216156110535760a08101511561100d5760e08101516101008201516001600160401b0391821691161115610fc757608081015161033f816112a1565b610348816112a1565b610f625763ffffffff6101408201511615610f10575b83518015908115610f05575b50610eca575f925f5b85518110156107d15761ffff602061038b83896112ab565b510151161561078b5760406103a082886112ab565b5101516103ac816112a1565b6103b5816112a1565b6106e3576001600160801b0360606103cd83896112ab565b5101511615610691575b6103e181876112ab565b51600c5468010000000000000000811015610655576001810180600c5581101561067d57600c5f5260205f209060011b019061ffff8151169082549163ffff0000602083015160101b169260408301519361043b856112a1565b610444856112a1565b6060840151608085015160a08601519360a89190911b61ffff60a81b16929160281b600160281b600160a81b03169061047c856112a1565b610485856112a1565b60c08701519760038910156106695760b89590951b60ff60b81b1662ffffff60a81b19600160281b600160a81b03199097166001600160a81b0319909216919091179092179490941660209390931b64ff0000000016929092179290921760ff60c01b1916919091171760c09290921b60ff60c01b1691909117825560e001518051906001600160401b038211610655576001830154600181811c9116801561064b575b602082101461063757601f81116105ef575b50602090601f831160011461058057918060019594939286935f92610575575b50505f19600383901b1c191690821b179101555b01610373565b015190505f8061055b565b90600184015f52805f20915f5b601f19851681106105d7575092600195949392869392849383601f198116106105bf575b505050811b0191015561056f565b01515f1960f88460031b161c191690555f80806105b1565b9192602060018192868501518155019401920161058d565b600184015f5260205f20601f840160051c8101916020851061062d575b601f0160051c01905b818110610622575061053b565b5f8155600101610615565b909150819061060c565b634e487b7160e01b5f52602260045260245ffd5b90607f1690610529565b634e487b7160e01b5f52604160045260245ffd5b634e487b7160e01b5f52602160045260245ffd5b634e487b7160e01b5f52603260045260245ffd5b604051634389d5ab60e01b8152602060048201526024808201527f7072697a65416d6f756e7420726571756972656420666f7220414d4f554e542060448201526372616e6b60e01b6064820152608490fd5b9361ffff60806106f387896112ab565b51015116156107325761ffff608061070b87896112ab565b51015116810180911161071e57936103d7565b634e487b7160e01b5f52601160045260245ffd5b604051634389d5ab60e01b815260206004820152602a60248201527f616c6c6f636174696f6e42707320726571756972656420666f7220414c4c4f436044820152694154494f4e2072616e6b60b01b6064820152608490fd5b604051634389d5ab60e01b815260206004820152601760248201527f6d617857696e6e657273206d757374206265203e3d20310000000000000000006044820152606490fd5b50856127108511610e84576080908152602082015160a052604082015160c052606082015163ffffffff1660e052015161ffff1661010052805180519092906001600160401b03811161065557600454600181811c91168015610e7a575b602082101461063757601f8111610e17575b506020601f8211600114610db457819293945f92610da9575b50508160011b915f199060031b1c1916176004555b602082015180519092906001600160401b03811161065557600554600181811c91168015610d9f575b602082101461063757601f8111610d59575b506020601f8211600114610cf657819293945f92610ceb575b50508160011b915f199060031b1c1916176005555b604081015180519092906001600160401b03811161065557600654600181811c91168015610ce1575b602082101461063757601f8111610c7e575b506020601f8211600114610c1b57819293945f92610c10575b50508160011b915f199060031b1c1916176006555b6060820151805192906001600160401b03841161065557600754600181811c91168015610c06575b602082101461063757601f8111610ba3575b50602090601f8511600114610b3b57610a8d94915f9183610b30575b50508160011b915f199060031b1c1916176007555b60808101516109ba816112a1565b6109c3816112a1565b6008805460ff9290921660ff1990921691909117905560a08181015160095560c0820151600a805460e08501516001600160e01b03199091166001600160a01b03909316929092179190921b600160a01b600160e01b0316179055610100810151600b8054610120840151610140909401516001600160a01b03199091166001600160401b039093169290921760409390931b6fffffffffffffffff0000000000000000169290921760809190911b63ffffffff60801b16179055610a87816112bf565b50611335565b5060ff19600d5416600d55604051612c4090816113c982396080518181816105040152818161061901528181610c3501528181610f780152818161179d0152818161197f01528181611c7801528181611fe9015281816120930152612957015260a0518181816120cd0152612833015260c0518181816119db015261280b015260e051818181611e2d015261288d015261010051818181610dae015261285f0152f35b015190508580610997565b90601f1985169160075f52815f20925f5b818110610b8b5750916001939187610a8d989410610b73575b505050811b016007556109ac565b01515f1960f88460031b161c19169055858080610b65565b92936020600181928786015181550195019301610b4c565b60075f527fa66cc928b5edb82af9bd49922954155ab7b0942694bea4ce44661d9a8736c688601f860160051c81019160208710610bfc575b601f0160051c01905b818110610bf1575061097b565b5f8155600101610be4565b9091508190610bdb565b90607f1690610969565b01519050848061092c565b601f1982169060065f52805f20915f5b818110610c6657509583600195969710610c4e575b505050811b01600655610941565b01515f1960f88460031b161c19169055848080610c40565b9192602060018192868b015181550194019201610c2b565b60065f527ff652222313e28459528d920b65115c16c04f3efc82aaedc97be59f3f377c0d3f601f830160051c81019160208410610cd7575b601f0160051c01905b818110610ccc5750610913565b5f8155600101610cbf565b9091508190610cb6565b90607f1690610901565b0151905084806108c3565b601f1982169060055f52805f20915f5b818110610d4157509583600195969710610d29575b505050811b016005556108d8565b01515f1960f88460031b161c19169055848080610d1b565b9192602060018192868b015181550194019201610d06565b60055f5260205f20601f830160051c81019160208410610d95575b601f0160051c01905b818110610d8a57506108aa565b5f8155600101610d7d565b9091508190610d74565b90607f1690610898565b01519050848061085a565b601f1982169060045f52805f20915f5b818110610dff57509583600195969710610de7575b505050811b0160045561086f565b01515f1960f88460031b161c19169055848080610dd9565b9192602060018192868b015181550194019201610dc4565b60045f527f8a35acfbc15ff81a39ae7d344fd709f28e8600b4aa8c65c6b64bfe7fe36bd19b601f830160051c81019160208410610e70575b601f0160051c01905b818110610e655750610841565b5f8155600101610e58565b9091508190610e4f565b90607f169061082f565b604051634389d5ab60e01b815260206004820152601b60248201527f616c6c6f636174696f6e2073756d2065786365656473203130302500000000006044820152606490fd5b604051634389d5ab60e01b8152602060048201526012602482015271072616e6b73206c656e67746820312e2e32360741b6044820152606490fd5b60149150115f61036a565b604051634389d5ab60e01b815260206004820152602360248201527f6d617850617274696369706174696f6e20726571756972656420666f7220434f60448201526215539560ea1b6064820152608490fd5b6101208101516101008201516001600160401b039182169116111561035e57604051634389d5ab60e01b815260206004820152601b60248201527f647261774174206d757374206265203e3d2073616c65436c6f736500000000006044820152606490fd5b604051634389d5ab60e01b815260206004820152601d60248201527f73616c655374617274206d757374206265203c2073616c65436c6f73650000006044820152606490fd5b604051634389d5ab60e01b815260206004820152601760248201527f7469636b65745072696365206d757374206265203e20300000000000000000006044820152606490fd5b604051634389d5ab60e01b815260206004820152600a6024820152693d32b9379030b236b4b760b11b6044820152606490fd5b63d92e233d60e01b5f5260045ffd5b60405162461bcd60e51b815260206004820152601860248201527f43616e6e6f7420736574206f776e657220746f207a65726f00000000000000006044820152606490fd5b82516001600160401b0381116111df578287010190610100601f1983878a010301126111df576040519161010083016001600160401b038111848210176106555760405261112a6020820161122d565b83526111386040820161122d565b6020840152606081015160028110156111df57604084015260808101516001600160801b03811681036111df57606084015261117660a0820161122d565b608084015260c081015160028110156111df5760a084015260e081015160038110156111df5760c0840152610100810151916001600160401b0383116111df576020936111cd8594938580958b8e0192010161123c565b60e08201528152019301929050610280565b5f80fd5b6040519190601f01601f191682016001600160401b0381118382101761065557604052565b51906001600160a01b03821682036111df57565b519063ffffffff821682036111df57565b519061ffff821682036111df57565b81601f820112156111df578051906001600160401b0382116106555761126b601f8301601f19166020016111e3565b92828452602083830101116111df57815f9260208093018386015e8301015290565b51906001600160401b03821682036111df57565b6002111561066957565b805182101561067d5760209160051b010190565b6001600160a01b0381165f9081525f5160206140495f395f51905f52602052604090205460ff16611330576001600160a01b03165f8181525f5160206140495f395f51905f5260205260408120805460ff191660011790553391905f5160206140095f395f51905f528180a4600190565b505f90565b6001600160a01b0381165f9081525f5160206140295f395f51905f52602052604090205460ff16611330576001600160a01b03165f8181525f5160206140295f395f51905f5260205260408120805460ff191660011790553391907f97667070c54ef182b0f5858b034beac1b6f3089aa2d3188bb1e8929f4fa9b929905f5160206140095f395f51905f529080a460019056fe6080806040526004361015610012575f80fd5b5f3560e01c90816301ffc9a7146123985750806304867ecc146120f057806309c1ba2e146120b65780631b3c558e146120455780631fe543e314611f1d578063200d2ed214611ef457806323c674d414611e7c578063248a9ca314611e5157806324f7469714611e115780632f2ff15d14611dd35780632f36663714611b46578063362f04c014611b2957806336568abe14611ae55780633f4ba83a14611a775780634c7dde2f14611a5a5780635bf608b814611a235780635c975abb146119fe57806361728f39146119c4578063630fa80c14611915578063669b2b51146118f85780636b9592ad146118bc5780636c6bf5511461182757806370740ac9146116e957806376df8a1c146116cc57806379502c55146112a957806379ba5097146111fe5780637d3edac2146111e15780638456cb591461118057806384bd3264146111485780638da5cb5b146111215780638ea981171461104b5780638f15024f1461102e57806391d1485414610fe557806392a3effa14610f125780639eccacf614610eea578063a217fddf14610ed0578063a46c363714610eb3578063a52b2b8814610e76578063a57848b614610dd2578063b0fb162f14610d94578063b4845fff14610b50578063bcc941b614610b33578063cc1d4f10146105a6578063cd57067b14610589578063d547741f14610544578063d54ad2a114610527578063d7c81b55146104ed578063df15c37e14610425578063e89e106a14610408578063f2fde38b1461030f578063f4f4a4ea146102965763f5b541a614610258575f80fd5b34610292575f3660031901126102925760206040517f97667070c54ef182b0f5858b034beac1b6f3089aa2d3188bb1e8929f4fa9b9298152f35b5f80fd5b34610292576020366003190112610292576001600160a01b036102b7612469565b165f52601a60205260405f205460ff8160901c16906001600160801b036040519161ffff8116835260101c16602082015260048210156102fb576060916040820152f35b634e487b7160e01b5f52602160045260245ffd5b3461029257602036600319011261029257610328612469565b5f546001600160a01b031690338290036103ca576001600160a01b03169033821461038557600180546001600160a01b031916831790557fed8889f560326eb138920d842192f0eb3dd22b4f139c87a2c57538e05bae12785f80a3005b60405162461bcd60e51b815260206004820152601760248201527f43616e6e6f74207472616e7366657220746f2073656c660000000000000000006044820152606490fd5b60405162461bcd60e51b815260206004820152601660248201527527b7363c9031b0b63630b1363290313c9037bbb732b960511b6044820152606490fd5b34610292575f366003190112610292576020601254604051908152f35b34610292575f36600319011261029257604051806020601c5492838152018092601c5f527f0e4562a10381dec21b205ed72637e6b1b523bdd0e4d4d50af5cd23dd4500a211905f5b8181106104ce57505050816104839103826124bf565b604051918291602083019060208452518091526040830191905f5b8181106104ac575050500390f35b82516001600160a01b031684528594506020938401939092019160010161049e565b82546001600160a01b031684526020909301926001928301920161046d565b34610292575f3660031901126102925760206040517f00000000000000000000000000000000000000000000000000000000000000008152f35b34610292575f366003190112610292576020601954604051908152f35b3461029257604036600319011261029257610587600435610563612453565b9061058261057d825f526003602052600160405f20015490565b6125ba565b6129bb565b005b34610292575f366003190112610292576020601654604051908152f35b34610292576020366003190112610292576004356105c261269e565b60ff600d54166005811015806102fb57600282149182159081610b24575b50610b10578215610aca576102fb57610962575b61060160165491826124e0565b9060145480831161095a575b508181101561094b57907f0000000000000000000000000000000000000000000000000000000000000000915b8181106106a957508060165560145414610662575b60015f516020612beb5f395f51905f5255005b600460ff19600d541617600d557fa37c6fc03a0f8a02457d0220db96ab391e0adeae6ccceebc31b21f9ff7b8ddff604060145460185482519182526020820152a28061064f565b60135460405160208101918252826040820152604081526106cb6060826124bf565b5190206017549081156109375706905f915f92601054915f5b8381106108c5575b505050506106f981612abd565b9261070382612b5b565b60ff61070e84612aa1565b505460c01c169160018060a01b031692835f52601b60205260405f20600160ff19825416179055835f52601160205261074d60405f205460175461253e565b601755601c54600160401b8110156108aa578060016107719201601c55601c61243e565b8154600391821b87811b6001600160a01b0390911b19909116179091558310156102fb57826108be5760025b6040519160608301908382106001600160401b038311176108aa5761ffff916040521682526001600160801b0360208301931692838152604083019160048110156102fb578252855f52601a60205261ffff60405f2093511671ffffffffffffffffffffffffffffffff00008454925160101b169171ffffffffffffffffffffffffffffffffffff191617178255519560048710156102fb576108a389947f359a1efc88b354f2873b32fc94d3f8577114c23d5a15363d553706518fa1cdac9460609460019a81549060ff60901b9060901b169060ff60901b1916179055610887816018546124e0565b60185561ffff60405194168452602084015260408301906123f5565ba30161063a565b634e487b7160e01b5f52604160045260245ffd5b600161079d565b6108ce81612426565b60018060a01b0391549060031b1c1692835f52601b60205260ff60405f20541661092d5761090990845f52601160205260405f2054906124e0565b9283831061091c57506001905b016106e4565b9495505050505090848080806106ec565b9250600190610916565b634e487b7160e01b5f52601260045260245ffd5b6344b0c3ef60e11b5f5260045ffd5b91508261060d565b60105460058111610a7a576001905b5f5f600c545b808210610a52575050808311610a4a575b50808211610a42575b5080601455600e54601755905f915b600c54831015610a2d5761ffff6109b684612aa1565b505460101c168110610a235761ffff6109ce84612aa1565b505460101c165b601554600160401b8110156108aa57600192610a1b926109fd838661ffff950160155561247f565b939091169281549060031b9061ffff85831b921b191617905561253e565b9201916109a0565b61ffff81166109d5565b509050600360ff19600d541617600d556105f4565b905082610991565b915083610988565b9091610a7260019161ffff610a6686612aa1565b505460101c16906124e0565b920190610977565b600a8111610a8a57600290610971565b6103e881028181046103e81482151715610ab65761271090049060028210156109715760029150610971565b634e487b7160e01b5f52601160045260245ffd5b604051634389d5ab60e01b815260206004820152601760248201527f6d61785468697343616c6c206d757374206265203e20300000000000000000006044820152606490fd5b6320e24ecf60e01b5f52600260045260245ffd5b91505060035f911415846105e0565b34610292575f366003190112610292576020601454604051908152f35b3461029257604036600319011261029257610b69612469565b335f9081527f3617319a054d772f909f7c479a2cebe5066e836a939412e32403c99029b92eff60205260409020546024359060ff1615610d7d57610bab61269e565b6001600160a01b038216918215610d465760ff600d541660058110156102fb57600403610d3357610be16018546019549061253e565b600a546001600160a01b0316938415918215610cc55747905b8515918215610cb2575b5050610ca3576040518481527f044f98d3a69f7ea3f0918b4bdd25788604a743ad9a24911e511e402333c3d74d60207f000000000000000000000000000000000000000000000000000000000000000092a315610c95575f809350809281925af1610c6d612500565b5015610c865760015f516020612beb5f395f51905f5255005b6312171d8360e31b5f5260045ffd5b610c9e92612a3f565b61064f565b6394290ab960e01b5f5260045ffd5b610cbc925061253e565b84118680610c04565b6040516370a0823160e01b81523060048201526020816024818a5afa908115610d28575f91610cf6575b5090610bfa565b90506020813d602011610d20575b81610d11602093836124bf565b81010312610292575187610cef565b3d9150610d04565b6040513d5f823e3d90fd5b6320e24ecf60e01b5f526004805260245ffd5b604051634389d5ab60e01b815260206004820152600e60248201526d1e995c9bc81c9958da5c1a595b9d60921b6044820152606490fd5b63e2517d3f60e01b5f52336004525f60245260445ffd5b34610292575f36600319011261029257602060405161ffff7f0000000000000000000000000000000000000000000000000000000000000000168152f35b34610292575f36600319011261029257610dea61254b565b610df261269e565b600160ff60085416610e03816123eb565b03610e35576001600160401b03600b5460401c164210610e26575b61064f612768565b6341b5eb0b60e11b5f5260045ffd5b601054600b549063ffffffff8260801c16119081610e63575b5015610e1e576341b5eb0b60e11b5f5260045ffd5b6001600160401b03915016421081610e4e565b34610292576020366003190112610292576001600160a01b03610e97612469565b165f52601b602052602060ff60405f2054166040519015158152f35b34610292575f366003190112610292576020601c54604051908152f35b34610292575f3660031901126102925760206040515f8152f35b34610292575f366003190112610292576002546040516001600160a01b039091168152602090f35b3461029257602036600319011261029257600435610f2e61269e565b600a546001600160a01b0316908115610fd6578015610fa25761064f9160405182815233907f5dc92b91d63ae6815b0f176270ff5791425c9d23d0049ab5fce798e0d277239960207f000000000000000000000000000000000000000000000000000000000000000092a3309033906126d6565b604051634389d5ab60e01b815260206004820152600b60248201526a1e995c9bc8185b5bdd5b9d60aa1b6044820152606490fd5b63569e8c1160e01b5f5260045ffd5b3461029257604036600319011261029257610ffe612453565b6004355f52600360205260405f209060018060a01b03165f52602052602060ff60405f2054166040519015158152f35b34610292575f366003190112610292576020600e54604051908152f35b3461029257602036600319011261029257611064612469565b5f546001600160a01b0316338114158061110c575b6110e257506001600160a01b031680156110d3576020817fd1a6a14209a385a964d036e404cb5cfb71f4000cdb03c9366292430787261be6926bffffffffffffffffffffffff60a01b6002541617600255604051908152a1005b63d92e233d60e01b5f5260045ffd5b60025463061db9c160e01b5f908152336004526024929092526001600160a01b0316604452606490fd5b506002546001600160a01b0316331415611079565b34610292575f366003190112610292575f546040516001600160a01b039091168152602090f35b34610292576020366003190112610292576001600160a01b03611169612469565b165f526011602052602060405f2054604051908152f35b34610292575f3660031901126102925761119861254b565b6111a0612680565b6002805460ff60a01b1916600160a01b1790556040513381527f62e78cea01bee320cd4e420270b5ea74000d11b0c9f74754ebdbfc544b05a25890602090a1005b34610292575f366003190112610292576020601854604051908152f35b34610292575f366003190112610292576001546001600160a01b038116330361126b575f80546001600160a01b031980821633908117845593166001556001600160a01b0316907f8be0079c531659141344cd1fd0a4f28419497f9722a3daafe3b4186f6b6457e09080a3005b60405162461bcd60e51b815260206004820152601660248201527526bab9ba10313290383937b837b9b2b21037bbb732b960511b6044820152606490fd5b34610292575f366003190112610292576040515f6004548060011c91600182169182156116c2575b6020841083146115165783855284929081156116a35750600114611644575b6112fc925003826124bf565b6040515f6005548060011c916001821691821561163a575b60208410831461151657838552849290811561161b57506001146115bc575b61133f925003826124bf565b604051905f6006548060011c91600182169182156115b2575b6020841083146115165783865285929081156115935750600114611534575b611383925003836124bf565b604051915f6007548060011c9060018116801561152a575b602083108114611516578287529081156114ed575060011461148e575b50916001600160401b0363ffffffff926113d886610160979603866124bf565b60ff600854169461143260095491611424600a5494611416600b54986114086040519e8f9e8f8181520190612402565b8d810360208f015290612402565b908b820360408d0152612402565b9089820360608b0152612402565b9561143c816123eb565b608088015260a087015260018060a01b03811660c087015260a01c1660e08501526001600160401b0381166101008501526001600160401b038160401c1661012085015260801c166101408301520390f35b60075f90815291507fa66cc928b5edb82af9bd49922954155ab7b0942694bea4ce44661d9a8736c6885b8183106114d357505083016020016001600160401b036113b8565b6001816020929493945483858a01015201910191906114b8565b60ff191660208088019190915291151560051b860190910191506001600160401b0390506113b8565b634e487b7160e01b5f52602260045260245ffd5b91607f169161139b565b5060065f90815290917ff652222313e28459528d920b65115c16c04f3efc82aaedc97be59f3f377c0d3f5b81831061157757505090602061138392820101611377565b602091935080600191548385890101520191019091849261155f565b6020925061138394915060ff191682840152151560051b820101611377565b92607f1692611358565b5060055f90815290917f036b6384b5eca791c62761152d0c79bb0604c104a5fb6f4eb0703f3154bb3db05b8183106115ff57505090602061133f92820101611333565b60209193508060019154838588010152019101909183926115e7565b6020925061133f94915060ff191682840152151560051b820101611333565b92607f1692611314565b5060045f90815290917f8a35acfbc15ff81a39ae7d344fd709f28e8600b4aa8c65c6b64bfe7fe36bd19b5b8183106116875750509060206112fc928201016112f0565b602091935080600191548385880101520191019091839261166f565b602092506112fc94915060ff191682840152151560051b8201016112f0565b92607f16926112d1565b34610292575f366003190112610292576020600c54604051908152f35b34610292575f3660031901126102925761170161269e565b335f52601a60205260405f2060ff815460901c1660048110156102fb578015611818576003811461180957600119016117fa57805460ff60901b1916600360901b1780825560195461175f9160101c6001600160801b0316906124e0565b6019556001600160801b03815460101c1660405181815233907f4aa95f981a8337cb337de335b965507da0879c3b49f799d20058e913f5ad2c2660207f000000000000000000000000000000000000000000000000000000000000000092a3600a546001600160a01b0316806117ee5750505f80806001600160801b0381945460101c16335af1610c6d612500565b610c9e92503390612a3f565b633123d42760e11b5f5260045ffd5b630c8d9eab60e31b5f5260045ffd5b6358cd4fc160e11b5f5260045ffd5b34610292575f36600319011261029257600a546001600160a01b03168061185557506020475b604051908152f35b6020602491604051928380926370a0823160e01b82523060048301525afa8015610d28575f90611889575b6020915061184d565b506020813d6020116118b4575b816118a3602093836124bf565b810103126102925760209051611880565b3d9150611896565b34610292576020366003190112610292576004356015548110156102925761ffff6118e860209261247f565b90549060031b1c16604051908152f35b34610292575f366003190112610292576020600f54604051908152f35b346102925760203660031901126102925761192e612469565b61193661254b565b6001600160a01b03165f818152601a60205260409020805460901c60ff1660048110156102fb578015611818575f19016117fa57805460ff60901b1916600160911b17905533907f00000000000000000000000000000000000000000000000000000000000000007f72b1e86b3b5c828ad31ac81bffa9a625ae30b7db36c467b4af1176b1bdf7aa345f80a4005b34610292575f3660031901126102925760206040517f00000000000000000000000000000000000000000000000000000000000000008152f35b34610292575f36600319011261029257602060ff60025460a01c166040519015158152f35b34610292576020366003190112610292576020611a41600435612426565b905460405160039290921b1c6001600160a01b03168152f35b34610292575f366003190112610292576020601354604051908152f35b34610292575f36600319011261029257611a8f61254b565b60025460ff8160a01c1615611ad65760ff60a01b19166002556040513381527f5db9ee0a495bf2e6ff9c91a7834c1ba4fdd244a5e8aa4e537bd38aeae4b073aa90602090a1005b638dfc202b60e01b5f5260045ffd5b3461029257604036600319011261029257611afe612453565b336001600160a01b03821603611b1a57610587906004356129bb565b63334bd91960e11b5f5260045ffd5b34610292575f366003190112610292576020601054604051908152f35b602036600319011261029257600435611b5d612680565b611b6561269e565b60ff600d541660058110156102fb57611dc057600a54906001600160401b038260a01c164210611db157600b54916001600160401b038316421015611da2578115611d685760ff60085416611bb9816123eb565b1592335f52601160205260405f2054155f14611d5f578360ff60015b169181611d40575b50611d3157611bee836009546124ed565b916001600160a01b031680611d165750813403610fd6576001905b14611cd4575b335f52601160205260405f20611c268382546124e0565b9055611c3482600e546124e0565b600e55611c4381600f546124e0565b600f55604051918252602082015233907f830c4a183800e86da29c219cdb1ad8e51a4924fd549d8d2ee32d641c3b4e25a560407f000000000000000000000000000000000000000000000000000000000000000092a380611cbe575b611cb65760015f516020612beb5f395f51905f5255005b610c9e612768565b5060105463ffffffff600b5460801c1614611c9f565b601054600160401b8110156108aa57806001611cf59201601055601061243e565b81546001600160a01b0360039290921b91821b19163390911b179055611c0f565b9034610fd657611d2c83600193309033906126d6565b611c09565b633cf9642b60e21b5f5260045ffd5b905063ffffffff611d53836010546124e0565b9160801c161085611bdd565b8360ff5f611bd5565b604051634389d5ab60e01b81526020600482015260116024820152700636f756e74206d757374206265203e203607c1b6044820152606490fd5b630aed1b1b60e11b5f5260045ffd5b631117739360e21b5f5260045ffd5b6320e24ecf60e01b5f525f60045260245ffd5b3461029257604036600319011261029257610587600435611df2612453565b90611e0c61057d825f526003602052600160405f20015490565b6125f4565b34610292575f36600319011261029257602060405163ffffffff7f0000000000000000000000000000000000000000000000000000000000000000168152f35b3461029257602036600319011261029257602061184d6004355f526003602052600160405f20015490565b3461029257602036600319011261029257600435601c5481101561029257601c54811015611ee057601c5f527f0e4562a10381dec21b205ed72637e6b1b523bdd0e4d4d50af5cd23dd4500a21101546040516001600160a01b039091168152602090f35b634e487b7160e01b5f52603260045260245ffd5b34610292575f3660031901126102925760ff600d541660405160058210156102fb576020918152f35b34610292576040366003190112610292576024356001600160401b03811161029257366023820112156102925780600401356001600160401b038111610292573660248260051b84010111610292576002546001600160a01b03163381900361202f5750601254600435036120205760ff600d541660058110156102fb5760010361200c5715611ee05760240135601355600260ff19600d541617600d556013546040519081527f99a52778abd3076bd6fa4b2c51dc8e7d2ec6bad520dcedabece18d9f8f48018160207f000000000000000000000000000000000000000000000000000000000000000092a2005b6320e24ecf60e01b5f52600160045260245ffd5b638043166d60e01b5f5260045ffd5b63073e64fd60e21b5f523360045260245260445ffd5b5f36600319011261029257600a546001600160a01b0316610fd6573415610fa25760405134815233907f5dc92b91d63ae6815b0f176270ff5791425c9d23d0049ab5fce798e0d277239960207f000000000000000000000000000000000000000000000000000000000000000092a3005b34610292575f3660031901126102925760206040517f00000000000000000000000000000000000000000000000000000000000000008152f35b34610292575f36600319011261029257600c546001600160401b0381116108aa576040519061212560208260051b01836124bf565b808252602082018091600c5f527fdf6966c971051c3d54ec59162606531493a51404a002842f56009d7e5cf4a8c75f925b82841061224057848660405191829160208301906020845251809152604083019060408160051b85010192915f905b82821061219457505050500390f35b919360019193955060206122308192603f198a820301865261010060e08a5161ffff815116845261ffff86820151168685015260408101516121d5816123eb565b60408501526001600160801b03606082015116606085015261ffff608082015116608085015260a0810151612209816123eb565b60a085015261222060c082015160c08601906123f5565b0151918160e08201520190612402565b9601920192018594939192612185565b60405161010081018181106001600160401b038211176108aa5760405260ff835461ffff8116835261ffff8160101c166020840152818160201c16612284816123eb565b60408401526001600160801b038160281c16606084015261ffff8160a81c166080840152818160b81c166122b7816123eb565b60a084015260c01c1660038110156102fb5760c082015260018301604051905f908054908160011c9160018116801561238e575b602084108114611516578386529081156123695750600114612332575b5050926002928261231f60209460019703826124bf565b60e0820152815201920193019290612156565b5f908152602081209092505b81831061235357505081016020018282612308565b600181602092548386880101520192019161233e565b60ff191660208087019190915292151560051b85019092019250849150839050612308565b92607f16926122eb565b34610292576020366003190112610292576004359063ffffffff60e01b821680920361029257602091637965db0b60e01b81149081156123da575b5015158152f35b6301ffc9a760e01b149050836123d3565b600211156102fb57565b9060038210156102fb5752565b805180835260209291819084018484015e5f828201840152601f01601f1916010190565b601054811015611ee05760105f5260205f2001905f90565b8054821015611ee0575f5260205f2001905f90565b602435906001600160a01b038216820361029257565b600435906001600160a01b038216820361029257565b90601554821015611ee05760155f52600482901c7f55f448fdea98c4d29eb340757ef0a66cd03dbb9538908a6a81d96026b71ec475019160011b601e1690565b90601f801991011681019081106001600160401b038211176108aa57604052565b91908201809211610ab657565b81810292918115918404141715610ab657565b3d15612539573d906001600160401b0382116108aa576040519161252e601f8201601f1916602001846124bf565b82523d5f602084013e565b606090565b91908203918211610ab657565b335f9081527fc03103fc9c0ad7e4001ede1c469953fc46455d111e3d6da3b661469b87ece8d5602052604090205460ff161561258357565b63e2517d3f60e01b5f52336004527f97667070c54ef182b0f5858b034beac1b6f3089aa2d3188bb1e8929f4fa9b92960245260445ffd5b5f81815260036020908152604080832033845290915290205460ff16156125de5750565b63e2517d3f60e01b5f523360045260245260445ffd5b5f8181526003602090815260408083206001600160a01b038616845290915290205460ff1661267a575f8181526003602090815260408083206001600160a01b0395909516808452949091528120805460ff19166001179055339291907f2f8788117e7eff1d82e926ec794901d17c78024a50270940304540a733656f0d9080a4600190565b50505f90565b60ff60025460a01c1661268f57565b63d93c066560e01b5f5260045ffd5b60025f516020612beb5f395f51905f5254146126c75760025f516020612beb5f395f51905f5255565b633ee5aeb560e01b5f5260045ffd5b6040516323b872dd60e01b5f9081526001600160a01b039384166004529290931660245260449390935260209060648180865af19060015f5114821615612747575b6040525f606052156127275750565b635274afe760e01b5f9081526001600160a01b0391909116600452602490fd5b90600181151661275f57823b15153d15161690612718565b503d5f823e3d90fd5b60ff600d541660058110156102fb57611dc057601054156129ac57600d805460ff19166001179055600254604051906001600160a01b0316602082016001600160401b038111838210176108aa576040525f82526040519163125fa26760e31b60208401525115156024830152602482526127e46044836124bf565b6040519160c08301918383106001600160401b038411176108aa5761ffff936020936040527f000000000000000000000000000000000000000000000000000000000000000081525f848201917f0000000000000000000000000000000000000000000000000000000000000000835261290d6040820195887f000000000000000000000000000000000000000000000000000000000000000016875263ffffffff60608401817f00000000000000000000000000000000000000000000000000000000000000001681528160808601916001835260a087019485526040519c8d9b8c9a8b99634d8e1c2f60e11b8b528f60048c01525160248b01525160448a01525116606488015251166084860152511660a48401525160c060c484015260e4830190612402565b03925af1908115610d28575f9161297a575b508060125560105460405191825260208201527f355adf0b7f1ab609a4df0fae07738b44286cfc6929070e621025262b425b425d60407f000000000000000000000000000000000000000000000000000000000000000092a2565b90506020813d6020116129a4575b81612995602093836124bf565b8101031261029257515f61291f565b3d9150612988565b6308b6a47360e41b5f5260045ffd5b5f8181526003602090815260408083206001600160a01b038616845290915290205460ff161561267a575f8181526003602090815260408083206001600160a01b0395909516808452949091528120805460ff19169055339291907ff6391f5c32d9c69d2a47ea670b442974b53935d1edc7fd64eb21e047a839171b9080a4600190565b916040519163a9059cbb60e01b5f5260018060a01b031660045260245260205f60448180865af19060015f5114821615612a7f575b604052156127275750565b90600181151661275f57823b15153d15161690612a74565b8115610937570490565b600c54811015611ee057600c5f5260205f209060011b01905f90565b60155491905f805b848210612b1257604051634389d5ab60e01b815260206004820152601960248201527f77696e6e657220696e646578206f7574206f662072616e6765000000000000006044820152606490fd5b612b309061ffff612b228461247f565b90549060031b1c16906124e0565b90818310612b415760010190612ac5565b9350505061ffff80612b5284612aa1565b50541692169190565b6001600160801b039061ffff612b7a612b7383612aa1565b509261247f565b90549060031b1c1690549060ff8260201c16612b95816123eb565b15612bbf57612710612bb5612bbb9361ffff600f549160a81c16906124ed565b04612a97565b1690565b60ff8260b81c16612bcf816123eb565b15612be25782612bbb9260281c16612a97565b5060281c169056fe9b779b17422d0df92223018b32b4d1fa46e071723d6817e2486d003becc55f00a26469706673582212209ee9e4981c3657b85c3af89d944a8c8d3f638fad88a641868c5d424b31261f6064736f6c634300081c00332f8788117e7eff1d82e926ec794901d17c78024a50270940304540a733656f0dc03103fc9c0ad7e4001ede1c469953fc46455d111e3d6da3b661469b87ece8d53617319a054d772f909f7c479a2cebe5066e836a939412e32403c99029b92eff2f8788117e7eff1d82e926ec794901d17c78024a50270940304540a733656f0d360894a13ba1a3210667c828492db98dca3e2076cc3735a920a3ca505d382bbc02dd7bc7dec4dceedda775e58dd541e08a116c6c53815c0bd028192f7b626800cd5ed15c6e187e77e9aee88184c21f4f2182ab5827cb3b7e07fbedcd63f03300f0c57e16840df040f15088dc2f81fe391c3923bec73e23a9662efc9c229c6a00a2646970667358221220a87d0d6add3275d97a707e7064b3e5398eb3d0382d2e27164d17fdb23bddfc4364736f6c634300081c0033f0c57e16840df040f15088dc2f81fe391c3923bec73e23a9662efc9c229c6a00",
  "linkReferences": {},
  "deployedLinkReferences": {},
  "immutableReferences": {
    "2230": [
      {
        "length": 32,
        "start": 2012
      },
      {
        "length": 32,
        "start": 2242
      }
    ]
  },
  "inputSourceName": "project/contracts/GameFactory.sol",
  "buildInfoId": "solc-0_8_28-8dbd6dd120d4221e2b7686c4eb6bae352fd32c67"
}